{
  "contractName": "ProductTracker",
  "abi": [
    {
      "constant": true,
      "inputs": [
        {
          "name": "",
          "type": "uint256"
        }
      ],
      "name": "transitRecords",
      "outputs": [
        {
          "name": "id",
          "type": "uint256"
        },
        {
          "name": "From",
          "type": "string"
        },
        {
          "name": "To",
          "type": "string"
        },
        {
          "name": "On",
          "type": "string"
        },
        {
          "name": "In",
          "type": "string"
        },
        {
          "name": "transitStatus",
          "type": "bool"
        }
      ],
      "payable": false,
      "stateMutability": "view",
      "type": "function",
      "signature": "0x695f60e5"
    },
    {
      "constant": true,
      "inputs": [],
      "name": "transitCount",
      "outputs": [
        {
          "name": "",
          "type": "uint256"
        }
      ],
      "payable": false,
      "stateMutability": "view",
      "type": "function",
      "signature": "0x71e71141"
    },
    {
      "constant": true,
      "inputs": [
        {
          "name": "",
          "type": "uint256"
        }
      ],
      "name": "products",
      "outputs": [
        {
          "name": "id",
          "type": "uint256"
        },
        {
          "name": "productName",
          "type": "string"
        },
        {
          "name": "Manufacturer",
          "type": "string"
        },
        {
          "name": "Origin",
          "type": "string"
        },
        {
          "name": "On",
          "type": "string"
        }
      ],
      "payable": false,
      "stateMutability": "view",
      "type": "function",
      "signature": "0x7acc0b20"
    },
    {
      "constant": true,
      "inputs": [],
      "name": "productCount",
      "outputs": [
        {
          "name": "",
          "type": "uint256"
        }
      ],
      "payable": false,
      "stateMutability": "view",
      "type": "function",
      "signature": "0xe0f6ef87"
    },
    {
      "inputs": [],
      "payable": false,
      "stateMutability": "nonpayable",
      "type": "constructor",
      "signature": "constructor"
    },
    {
      "anonymous": false,
      "inputs": [
        {
          "indexed": false,
          "name": "id",
          "type": "uint256"
        },
        {
          "indexed": false,
          "name": "productName",
          "type": "string"
        },
        {
          "indexed": false,
          "name": "Manufacturer",
          "type": "string"
        },
        {
          "indexed": false,
          "name": "Origin",
          "type": "string"
        },
        {
          "indexed": false,
          "name": "On",
          "type": "string"
        }
      ],
      "name": "NewProductAdded",
      "type": "event",
      "signature": "0x74ca31a3572c0f28044af5b0d37c4ef608b4a76ad5e0f0ca823ad58b49f2e1a8"
    },
    {
      "anonymous": false,
      "inputs": [
        {
          "indexed": false,
          "name": "id",
          "type": "uint256"
        },
        {
          "indexed": false,
          "name": "From",
          "type": "string"
        },
        {
          "indexed": false,
          "name": "To",
          "type": "string"
        },
        {
          "indexed": false,
          "name": "On",
          "type": "string"
        },
        {
          "indexed": false,
          "name": "In",
          "type": "string"
        },
        {
          "indexed": false,
          "name": "transitStatus",
          "type": "bool"
        }
      ],
      "name": "TransitUpdated",
      "type": "event",
      "signature": "0xbc16a6907a6fb0097483201ccb444f713eda0b6db0be9bea785db9950ce62bc8"
    },
    {
      "constant": false,
      "inputs": [
        {
          "name": "_productName",
          "type": "string"
        },
        {
          "name": "_Manufacturer",
          "type": "string"
        },
        {
          "name": "_Origin",
          "type": "string"
        },
        {
          "name": "_On",
          "type": "string"
        }
      ],
      "name": "addNewProduct",
      "outputs": [],
      "payable": false,
      "stateMutability": "nonpayable",
      "type": "function",
      "signature": "0x462bfd1b"
    },
    {
      "constant": false,
      "inputs": [
        {
          "name": "_id",
          "type": "uint256"
        },
        {
          "name": "_From",
          "type": "string"
        },
        {
          "name": "_To",
          "type": "string"
        },
        {
          "name": "_On",
          "type": "string"
        },
        {
          "name": "_In",
          "type": "string"
        }
      ],
      "name": "transitUpdate",
      "outputs": [],
      "payable": false,
      "stateMutability": "nonpayable",
      "type": "function",
      "signature": "0x65a8e620"
    }
  ],
  "bytecode": "0x60806040526000805560006001553480156200001a57600080fd5b506200010c6040805190810160405280600281526020017f4d650000000000000000000000000000000000000000000000000000000000008152506040805190810160405280600381526020017f476f6400000000000000000000000000000000000000000000000000000000008152506040805190810160405280600581526020017f45617274680000000000000000000000000000000000000000000000000000008152506040805190810160405280600581526020017f426972746800000000000000000000000000000000000000000000000000000081525062000205640100000000026401000000009004565b620001ff60016040805190810160405280600581526020017f45617274680000000000000000000000000000000000000000000000000000008152506040805190810160405280600681526020017f48656176656e00000000000000000000000000000000000000000000000000008152506040805190810160405280600581526020017f42697274680000000000000000000000000000000000000000000000000000008152506040805190810160405280600881526020017f4c69666574696d65000000000000000000000000000000000000000000000000815250620004ab640100000000026401000000009004565b6200083a565b6000805460019081018083556040805160a08101825282815260208082018a81528284018a90526060830189905260808301889052938652600281529190942084518155915180519293620002639390850192919091019062000795565b50604082015180516200028191600284019160209091019062000795565b50606082015180516200029f91600384019160209091019062000795565b5060808201518051620002bd91600484019160209091019062000795565b509050507f74ca31a3572c0f28044af5b0d37c4ef608b4a76ad5e0f0ca823ad58b49f2e1a8600054858585856040518086815260200180602001806020018060200180602001858103855289818151815260200191508051906020019080838360005b838110156200033a57818101518382015260200162000320565b50505050905090810190601f168015620003685780820380516001836020036101000a031916815260200191505b5085810384528851815288516020918201918a019080838360005b838110156200039d57818101518382015260200162000383565b50505050905090810190601f168015620003cb5780820380516001836020036101000a031916815260200191505b50858103835287518152875160209182019189019080838360005b8381101562000400578181015183820152602001620003e6565b50505050905090810190601f1680156200042e5780820380516001836020036101000a031916815260200191505b50858103825286518152865160209182019188019080838360005b838110156200046357818101518382015260200162000449565b50505050905090810190601f168015620004915780820380516001836020036101000a031916815260200191505b50995050505050505050505060405180910390a150505050565b60018054810180825584516020808701919091208751888301206040805160c0810182528b81528085018b81528183018b9052606082018a9052608082018990529290931460a0840181905260009586526003855294208251815590518051949592949193620005219385019291019062000795565b50604082015180516200053f91600284019160209091019062000795565b50606082015180516200055d91600384019160209091019062000795565b50608082015180516200057b91600484019160209091019062000795565b5060a08201518160050160006101000a81548160ff0219169083151502179055509050507fbc16a6907a6fb0097483201ccb444f713eda0b6db0be9bea785db9950ce62bc886868686868660405180878152602001806020018060200180602001806020018615151515815260200185810385528a818151815260200191508051906020019080838360005b838110156200062157818101518382015260200162000607565b50505050905090810190601f1680156200064f5780820380516001836020036101000a031916815260200191505b5085810384528951815289516020918201918b019080838360005b83811015620006845781810151838201526020016200066a565b50505050905090810190601f168015620006b25780820380516001836020036101000a031916815260200191505b5085810383528851815288516020918201918a019080838360005b83811015620006e7578181015183820152602001620006cd565b50505050905090810190601f168015620007155780820380516001836020036101000a031916815260200191505b50858103825287518152875160209182019189019080838360005b838110156200074a57818101518382015260200162000730565b50505050905090810190601f168015620007785780820380516001836020036101000a031916815260200191505b509a505050505050505050505060405180910390a1505050505050565b828054600181600116156101000203166002900490600052602060002090601f016020900481019282601f10620007d857805160ff191683800117855562000808565b8280016001018555821562000808579182015b8281111562000808578251825591602001919060010190620007eb565b50620008169291506200081a565b5090565b6200083791905b8082111562000816576000815560010162000821565b90565b611406806200084a6000396000f3fe6080604052600436106100775763ffffffff7c0100000000000000000000000000000000000000000000000000000000600035041663462bfd1b811461007c57806365a8e620146102c6578063695f60e51461051557806371e71141146106fb5780637acc0b2014610722578063e0f6ef87146108fd575b600080fd5b34801561008857600080fd5b506102c46004803603608081101561009f57600080fd5b8101906020810181356401000000008111156100ba57600080fd5b8201836020820111156100cc57600080fd5b803590602001918460018302840111640100000000831117156100ee57600080fd5b91908080601f016020809104026020016040519081016040528093929190818152602001838380828437600092019190915250929594936020810193503591505064010000000081111561014157600080fd5b82018360208201111561015357600080fd5b8035906020019184600183028401116401000000008311171561017557600080fd5b91908080601f01602080910402602001604051908101604052809392919081815260200183838082843760009201919091525092959493602081019350359150506401000000008111156101c857600080fd5b8201836020820111156101da57600080fd5b803590602001918460018302840111640100000000831117156101fc57600080fd5b91908080601f016020809104026020016040519081016040528093929190818152602001838380828437600092019190915250929594936020810193503591505064010000000081111561024f57600080fd5b82018360208201111561026157600080fd5b8035906020019184600183028401116401000000008311171561028357600080fd5b91908080601f016020809104026020016040519081016040528093929190818152602001838380828437600092019190915250929550610912945050505050565b005b3480156102d257600080fd5b506102c4600480360360a08110156102e957600080fd5b8135919081019060408101602082013564010000000081111561030b57600080fd5b82018360208201111561031d57600080fd5b8035906020019184600183028401116401000000008311171561033f57600080fd5b91908080601f016020809104026020016040519081016040528093929190818152602001838380828437600092019190915250929594936020810193503591505064010000000081111561039257600080fd5b8201836020820111156103a457600080fd5b803590602001918460018302840111640100000000831117156103c657600080fd5b91908080601f016020809104026020016040519081016040528093929190818152602001838380828437600092019190915250929594936020810193503591505064010000000081111561041957600080fd5b82018360208201111561042b57600080fd5b8035906020019184600183028401116401000000008311171561044d57600080fd5b91908080601f01602080910402602001604051908101604052809392919081815260200183838082843760009201919091525092959493602081019350359150506401000000008111156104a057600080fd5b8201836020820111156104b257600080fd5b803590602001918460018302840111640100000000831117156104d457600080fd5b91908080601f016020809104026020016040519081016040528093929190818152602001838380828437600092019190915250929550610ba4945050505050565b34801561052157600080fd5b5061053f6004803603602081101561053857600080fd5b5035610e7a565b60405180878152602001806020018060200180602001806020018615151515815260200185810385528a818151815260200191508051906020019080838360005b83811015610598578181015183820152602001610580565b50505050905090810190601f1680156105c55780820380516001836020036101000a031916815260200191505b5085810384528951815289516020918201918b019080838360005b838110156105f85781810151838201526020016105e0565b50505050905090810190601f1680156106255780820380516001836020036101000a031916815260200191505b5085810383528851815288516020918201918a019080838360005b83811015610658578181015183820152602001610640565b50505050905090810190601f1680156106855780820380516001836020036101000a031916815260200191505b50858103825287518152875160209182019189019080838360005b838110156106b85781810151838201526020016106a0565b50505050905090810190601f1680156106e55780820380516001836020036101000a031916815260200191505b509a505050505050505050505060405180910390f35b34801561070757600080fd5b506107106110dc565b60408051918252519081900360200190f35b34801561072e57600080fd5b5061074c6004803603602081101561074557600080fd5b50356110e2565b6040518086815260200180602001806020018060200180602001858103855289818151815260200191508051906020019080838360005b8381101561079b578181015183820152602001610783565b50505050905090810190601f1680156107c85780820380516001836020036101000a031916815260200191505b5085810384528851815288516020918201918a019080838360005b838110156107fb5781810151838201526020016107e3565b50505050905090810190601f1680156108285780820380516001836020036101000a031916815260200191505b50858103835287518152875160209182019189019080838360005b8381101561085b578181015183820152602001610843565b50505050905090810190601f1680156108885780820380516001836020036101000a031916815260200191505b50858103825286518152865160209182019188019080838360005b838110156108bb5781810151838201526020016108a3565b50505050905090810190601f1680156108e85780820380516001836020036101000a031916815260200191505b50995050505050505050505060405180910390f35b34801561090957600080fd5b50610710611339565b6000805460019081018083556040805160a08101825282815260208082018a81528284018a9052606083018990526080830188905293865260028152919094208451815591518051929361096e9390850192919091019061133f565b506040820151805161098a91600284019160209091019061133f565b50606082015180516109a691600384019160209091019061133f565b50608082015180516109c291600484019160209091019061133f565b509050507f74ca31a3572c0f28044af5b0d37c4ef608b4a76ad5e0f0ca823ad58b49f2e1a8600054858585856040518086815260200180602001806020018060200180602001858103855289818151815260200191508051906020019080838360005b83811015610a3d578181015183820152602001610a25565b50505050905090810190601f168015610a6a5780820380516001836020036101000a031916815260200191505b5085810384528851815288516020918201918a019080838360005b83811015610a9d578181015183820152602001610a85565b50505050905090810190601f168015610aca5780820380516001836020036101000a031916815260200191505b50858103835287518152875160209182019189019080838360005b83811015610afd578181015183820152602001610ae5565b50505050905090810190601f168015610b2a5780820380516001836020036101000a031916815260200191505b50858103825286518152865160209182019188019080838360005b83811015610b5d578181015183820152602001610b45565b50505050905090810190601f168015610b8a5780820380516001836020036101000a031916815260200191505b50995050505050505050505060405180910390a150505050565b60018054810180825584516020808701919091208751888301206040805160c0810182528b81528085018b81528183018b9052606082018a9052608082018990529290931460a0840181905260009586526003855294208251815590518051949592949193610c189385019291019061133f565b5060408201518051610c3491600284019160209091019061133f565b5060608201518051610c5091600384019160209091019061133f565b5060808201518051610c6c91600484019160209091019061133f565b5060a08201518160050160006101000a81548160ff0219169083151502179055509050507fbc16a6907a6fb0097483201ccb444f713eda0b6db0be9bea785db9950ce62bc886868686868660405180878152602001806020018060200180602001806020018615151515815260200185810385528a818151815260200191508051906020019080838360005b83811015610d10578181015183820152602001610cf8565b50505050905090810190601f168015610d3d5780820380516001836020036101000a031916815260200191505b5085810384528951815289516020918201918b019080838360005b83811015610d70578181015183820152602001610d58565b50505050905090810190601f168015610d9d5780820380516001836020036101000a031916815260200191505b5085810383528851815288516020918201918a019080838360005b83811015610dd0578181015183820152602001610db8565b50505050905090810190601f168015610dfd5780820380516001836020036101000a031916815260200191505b50858103825287518152875160209182019189019080838360005b83811015610e30578181015183820152602001610e18565b50505050905090810190601f168015610e5d5780820380516001836020036101000a031916815260200191505b509a505050505050505050505060405180910390a1505050505050565b6003602090815260009182526040918290208054600180830180548651600293821615610100026000190190911692909204601f810186900486028301860190965285825291949293909290830182828015610f175780601f10610eec57610100808354040283529160200191610f17565b820191906000526020600020905b815481529060010190602001808311610efa57829003601f168201915b50505060028085018054604080516020601f6000196101006001871615020190941695909504928301859004850281018501909152818152959695945090925090830182828015610fa95780601f10610f7e57610100808354040283529160200191610fa9565b820191906000526020600020905b815481529060010190602001808311610f8c57829003601f168201915b5050505060038301805460408051602060026001851615610100026000190190941693909304601f81018490048402820184019092528181529495949350908301828280156110395780601f1061100e57610100808354040283529160200191611039565b820191906000526020600020905b81548152906001019060200180831161101c57829003601f168201915b5050505060048301805460408051602060026001851615610100026000190190941693909304601f81018490048402820184019092528181529495949350908301828280156110c95780601f1061109e576101008083540402835291602001916110c9565b820191906000526020600020905b8154815290600101906020018083116110ac57829003601f168201915b5050506005909301549192505060ff1686565b60015481565b60026020818152600092835260409283902080546001808301805487519281161561010002600019011695909504601f810185900485028201850190965285815290949193909290919083018282801561117d5780601f106111525761010080835404028352916020019161117d565b820191906000526020600020905b81548152906001019060200180831161116057829003601f168201915b50505060028085018054604080516020601f600019610100600187161502019094169590950492830185900485028101850190915281815295969594509092509083018282801561120f5780601f106111e45761010080835404028352916020019161120f565b820191906000526020600020905b8154815290600101906020018083116111f257829003601f168201915b5050505060038301805460408051602060026001851615610100026000190190941693909304601f810184900484028201840190925281815294959493509083018282801561129f5780601f106112745761010080835404028352916020019161129f565b820191906000526020600020905b81548152906001019060200180831161128257829003601f168201915b5050505060048301805460408051602060026001851615610100026000190190941693909304601f810184900484028201840190925281815294959493509083018282801561132f5780601f106113045761010080835404028352916020019161132f565b820191906000526020600020905b81548152906001019060200180831161131257829003601f168201915b5050505050905085565b60005481565b828054600181600116156101000203166002900490600052602060002090601f016020900481019282601f1061138057805160ff19168380011785556113ad565b828001600101855582156113ad579182015b828111156113ad578251825591602001919060010190611392565b506113b99291506113bd565b5090565b6113d791905b808211156113b957600081556001016113c3565b9056fea165627a7a723058200906440d3025f96368b6a14bcf74fa265c88a9c92c8636c19637ad8a0bd53df40029",
  "source": "pragma solidity ^0.5.0;\r\n\r\ncontract ProductTracker{\r\n\tuint public productCount=0;\r\n\tuint public transitCount=0;\r\n\tstruct Product{\r\n\t\tuint id;\r\n\t\tstring productName;\r\n\t\tstring Manufacturer;\r\n\t\tstring Origin;\r\n\t\tstring On;\r\n\t}\r\n\tstruct Transit{\r\n\t    uint id;\r\n\t    string From;\r\n\t    string To;\r\n\t    string On;\r\n\t    string In;\r\n\t    bool transitStatus;\r\n\t}\r\n\tmapping(uint => Product) public products;\r\n\tmapping(uint=> Transit) public transitRecords;\r\n\r\n\tconstructor() public{\r\n\t\taddNewProduct(\"Me\",\"God\",\"Earth\",\"Birth\");\r\n\t\ttransitUpdate(1,\"Earth\",\"Heaven\",\"Birth\",\"Lifetime\");\r\n\t}\r\n\tevent NewProductAdded(\r\n\t\tuint id,\r\n\t\tstring productName,\r\n\t\tstring Manufacturer,\r\n\t\tstring Origin,\r\n\t\tstring On\r\n\t\t);\r\n\tevent TransitUpdated(\r\n\t    uint id,\r\n\t    string From,\r\n\t    string To,\r\n\t    string On,\r\n\t    string In,\r\n\t    bool transitStatus\r\n\t\t);\r\n\tfunction addNewProduct(string memory _productName,string memory _Manufacturer,string memory _Origin,string memory _On) public{\r\n\t\tproductCount ++;\r\n\t\tproducts[productCount]=Product(productCount,_productName,_Manufacturer,_Origin,_On);\r\n\t\temit NewProductAdded(productCount,_productName,_Manufacturer,_Origin,_On);\r\n\t}\r\n\tfunction transitUpdate(uint _id,string memory _From, string memory  _To, string memory _On, string memory _In) public{\r\n\t\ttransitCount ++;\r\n\t\tbool result=keccak256(bytes(_From))==keccak256(bytes(_To));\r\n\t\ttransitRecords[transitCount]=Transit(_id,_From,_To,_On,_In,result);\r\n\t\temit TransitUpdated(_id,_From,_To,_On,_In,result);\r\n\t}\r\n\r\n}\r\n// string memory _From, string memory  _To, string memory _On, string memory _In\r\n// ,\"Earth\",\"Heaven\",\"Death\",\"Some days\"\r\n// \t\tbool result=keccak256(bytes(_From))==keccak256(bytes(_To));",
  "sourcePath": "C:/Users/Vidhu/product-tracker/contracts/ProductTracker.sol",
  "compiler": {
    "name": "solc",
    "version": "0.5.0+commit.1d4f565a.Emscripten.clang"
  },
  "schemaVersion": "3.0.1",
  "updatedAt": "2021-04-22T04:12:47.497Z",
  "devdoc": {
    "methods": {}
  },
  "userdoc": {
    "methods": {}
  }
}