{
  "contractName": "ProductTracker",
  "abi": [
    {
      "constant": true,
      "inputs": [
        {
          "name": "",
          "type": "uint256"
        }
      ],
      "name": "transitRecords",
      "outputs": [
        {
          "name": "id",
          "type": "uint256"
        },
        {
          "name": "From",
          "type": "string"
        },
        {
          "name": "To",
          "type": "string"
        },
        {
          "name": "On",
          "type": "string"
        },
        {
          "name": "In",
          "type": "string"
        },
        {
          "name": "transitStatus",
          "type": "bool"
        }
      ],
      "payable": false,
      "stateMutability": "view",
      "type": "function",
      "signature": "0x695f60e5"
    },
    {
      "constant": true,
      "inputs": [],
      "name": "transitCount",
      "outputs": [
        {
          "name": "",
          "type": "uint256"
        }
      ],
      "payable": false,
      "stateMutability": "view",
      "type": "function",
      "signature": "0x71e71141"
    },
    {
      "constant": true,
      "inputs": [
        {
          "name": "",
          "type": "uint256"
        }
      ],
      "name": "products",
      "outputs": [
        {
          "name": "id",
          "type": "uint256"
        },
        {
          "name": "productName",
          "type": "string"
        },
        {
          "name": "Manufacturer",
          "type": "string"
        },
        {
          "name": "Origin",
          "type": "string"
        },
        {
          "name": "On",
          "type": "string"
        }
      ],
      "payable": false,
      "stateMutability": "view",
      "type": "function",
      "signature": "0x7acc0b20"
    },
    {
      "constant": true,
      "inputs": [],
      "name": "productCount",
      "outputs": [
        {
          "name": "",
          "type": "uint256"
        }
      ],
      "payable": false,
      "stateMutability": "view",
      "type": "function",
      "signature": "0xe0f6ef87"
    },
    {
      "inputs": [],
      "payable": false,
      "stateMutability": "nonpayable",
      "type": "constructor",
      "signature": "constructor"
    },
    {
      "constant": false,
      "inputs": [
        {
          "name": "_productName",
          "type": "string"
        },
        {
          "name": "_Manufacturer",
          "type": "string"
        },
        {
          "name": "_Origin",
          "type": "string"
        },
        {
          "name": "_On",
          "type": "string"
        }
      ],
      "name": "addNewProduct",
      "outputs": [],
      "payable": false,
      "stateMutability": "nonpayable",
      "type": "function",
      "signature": "0x462bfd1b"
    },
    {
      "constant": false,
      "inputs": [
        {
          "name": "_id",
          "type": "uint256"
        },
        {
          "name": "_From",
          "type": "string"
        },
        {
          "name": "_To",
          "type": "string"
        },
        {
          "name": "_On",
          "type": "string"
        },
        {
          "name": "_In",
          "type": "string"
        }
      ],
      "name": "transitUpdate",
      "outputs": [],
      "payable": false,
      "stateMutability": "nonpayable",
      "type": "function",
      "signature": "0x65a8e620"
    }
  ],
  "bytecode": "0x60806040526000805560006001553480156200001a57600080fd5b506200010c6040805190810160405280600281526020017f4d650000000000000000000000000000000000000000000000000000000000008152506040805190810160405280600381526020017f476f6400000000000000000000000000000000000000000000000000000000008152506040805190810160405280600581526020017f45617274680000000000000000000000000000000000000000000000000000008152506040805190810160405280600581526020017f426972746800000000000000000000000000000000000000000000000000000081525062000205640100000000026401000000009004565b620001ff60016040805190810160405280600581526020017f45617274680000000000000000000000000000000000000000000000000000008152506040805190810160405280600681526020017f48656176656e00000000000000000000000000000000000000000000000000008152506040805190810160405280600581526020017f42697274680000000000000000000000000000000000000000000000000000008152506040805190810160405280600881526020017f4c69666574696d65000000000000000000000000000000000000000000000000815250620002e3640100000000026401000000009004565b620004af565b600080815480929190600101919050555060a06040519081016040528060005481526020018581526020018481526020018381526020018281525060026000805481526020019081526020016000206000820151816000015560208201518160010190805190602001906200027c92919062000400565b5060408201518160020190805190602001906200029b92919062000400565b506060820151816003019080519060200190620002ba92919062000400565b506080820151816004019080519060200190620002d992919062000400565b5090505050505050565b60016000815480929190600101919050555060008380519060200120858051906020012014905060c0604051908101604052808781526020018681526020018581526020018481526020018381526020018215158152506003600060015481526020019081526020016000206000820151816000015560208201518160010190805190602001906200037792919062000400565b5060408201518160020190805190602001906200039692919062000400565b506060820151816003019080519060200190620003b592919062000400565b506080820151816004019080519060200190620003d492919062000400565b5060a08201518160050160006101000a81548160ff021916908315150217905550905050505050505050565b828054600181600116156101000203166002900490600052602060002090601f016020900481019282601f106200044357805160ff191683800117855562000474565b8280016001018555821562000474579182015b828111156200047357825182559160200191906001019062000456565b5b50905062000483919062000487565b5090565b620004ac91905b80821115620004a85760008160009055506001016200048e565b5090565b90565b61120780620004bf6000396000f3fe608060405260043610610078576000357c0100000000000000000000000000000000000000000000000000000000900463ffffffff168063462bfd1b1461007d57806365a8e6201461030a578063695f60e5146105a157806371e71141146107ab5780637acc0b20146107d6578063e0f6ef87146109d5575b600080fd5b34801561008957600080fd5b50610308600480360360808110156100a057600080fd5b81019080803590602001906401000000008111156100bd57600080fd5b8201836020820111156100cf57600080fd5b803590602001918460018302840111640100000000831117156100f157600080fd5b91908080601f016020809104026020016040519081016040528093929190818152602001838380828437600081840152601f19601f8201169050808301925050505050505091929192908035906020019064010000000081111561015457600080fd5b82018360208201111561016657600080fd5b8035906020019184600183028401116401000000008311171561018857600080fd5b91908080601f016020809104026020016040519081016040528093929190818152602001838380828437600081840152601f19601f820116905080830192505050505050509192919290803590602001906401000000008111156101eb57600080fd5b8201836020820111156101fd57600080fd5b8035906020019184600183028401116401000000008311171561021f57600080fd5b91908080601f016020809104026020016040519081016040528093929190818152602001838380828437600081840152601f19601f8201169050808301925050505050505091929192908035906020019064010000000081111561028257600080fd5b82018360208201111561029457600080fd5b803590602001918460018302840111640100000000831117156102b657600080fd5b91908080601f016020809104026020016040519081016040528093929190818152602001838380828437600081840152601f19601f820116905080830192505050505050509192919290505050610a00565b005b34801561031657600080fd5b5061059f600480360360a081101561032d57600080fd5b81019080803590602001909291908035906020019064010000000081111561035457600080fd5b82018360208201111561036657600080fd5b8035906020019184600183028401116401000000008311171561038857600080fd5b91908080601f016020809104026020016040519081016040528093929190818152602001838380828437600081840152601f19601f820116905080830192505050505050509192919290803590602001906401000000008111156103eb57600080fd5b8201836020820111156103fd57600080fd5b8035906020019184600183028401116401000000008311171561041f57600080fd5b91908080601f016020809104026020016040519081016040528093929190818152602001838380828437600081840152601f19601f8201169050808301925050505050505091929192908035906020019064010000000081111561048257600080fd5b82018360208201111561049457600080fd5b803590602001918460018302840111640100000000831117156104b657600080fd5b91908080601f016020809104026020016040519081016040528093929190818152602001838380828437600081840152601f19601f8201169050808301925050505050505091929192908035906020019064010000000081111561051957600080fd5b82018360208201111561052b57600080fd5b8035906020019184600183028401116401000000008311171561054d57600080fd5b91908080601f016020809104026020016040519081016040528093929190818152602001838380828437600081840152601f19601f820116905080830192505050505050509192919290505050610ad6565b005b3480156105ad57600080fd5b506105da600480360360208110156105c457600080fd5b8101908080359060200190929190505050610beb565b60405180878152602001806020018060200180602001806020018615151515815260200185810385528a818151815260200191508051906020019080838360005b8381101561063657808201518184015260208101905061061b565b50505050905090810190601f1680156106635780820380516001836020036101000a031916815260200191505b50858103845289818151815260200191508051906020019080838360005b8381101561069c578082015181840152602081019050610681565b50505050905090810190601f1680156106c95780820380516001836020036101000a031916815260200191505b50858103835288818151815260200191508051906020019080838360005b838110156107025780820151818401526020810190506106e7565b50505050905090810190601f16801561072f5780820380516001836020036101000a031916815260200191505b50858103825287818151815260200191508051906020019080838360005b8381101561076857808201518184015260208101905061074d565b50505050905090810190601f1680156107955780820380516001836020036101000a031916815260200191505b509a505050505050505050505060405180910390f35b3480156107b757600080fd5b506107c0610e94565b6040518082815260200191505060405180910390f35b3480156107e257600080fd5b5061080f600480360360208110156107f957600080fd5b8101908080359060200190929190505050610e9a565b6040518086815260200180602001806020018060200180602001858103855289818151815260200191508051906020019080838360005b83811015610861578082015181840152602081019050610846565b50505050905090810190601f16801561088e5780820380516001836020036101000a031916815260200191505b50858103845288818151815260200191508051906020019080838360005b838110156108c75780820151818401526020810190506108ac565b50505050905090810190601f1680156108f45780820380516001836020036101000a031916815260200191505b50858103835287818151815260200191508051906020019080838360005b8381101561092d578082015181840152602081019050610912565b50505050905090810190601f16801561095a5780820380516001836020036101000a031916815260200191505b50858103825286818151815260200191508051906020019080838360005b83811015610993578082015181840152602081019050610978565b50505050905090810190601f1680156109c05780820380516001836020036101000a031916815260200191505b50995050505050505050505060405180910390f35b3480156109e157600080fd5b506109ea611130565b6040518082815260200191505060405180910390f35b600080815480929190600101919050555060a0604051908101604052806000548152602001858152602001848152602001838152602001828152506002600080548152602001908152602001600020600082015181600001556020820151816001019080519060200190610a75929190611136565b506040820151816002019080519060200190610a92929190611136565b506060820151816003019080519060200190610aaf929190611136565b506080820151816004019080519060200190610acc929190611136565b5090505050505050565b60016000815480929190600101919050555060008380519060200120858051906020012014905060c060405190810160405280878152602001868152602001858152602001848152602001838152602001821515815250600360006001548152602001908152602001600020600082015181600001556020820151816001019080519060200190610b68929190611136565b506040820151816002019080519060200190610b85929190611136565b506060820151816003019080519060200190610ba2929190611136565b506080820151816004019080519060200190610bbf929190611136565b5060a08201518160050160006101000a81548160ff021916908315150217905550905050505050505050565b6003602052806000526040600020600091509050806000015490806001018054600181600116156101000203166002900480601f016020809104026020016040519081016040528092919081815260200182805460018160011615610100020316600290048015610c9d5780601f10610c7257610100808354040283529160200191610c9d565b820191906000526020600020905b815481529060010190602001808311610c8057829003601f168201915b505050505090806002018054600181600116156101000203166002900480601f016020809104026020016040519081016040528092919081815260200182805460018160011615610100020316600290048015610d3b5780601f10610d1057610100808354040283529160200191610d3b565b820191906000526020600020905b815481529060010190602001808311610d1e57829003601f168201915b505050505090806003018054600181600116156101000203166002900480601f016020809104026020016040519081016040528092919081815260200182805460018160011615610100020316600290048015610dd95780601f10610dae57610100808354040283529160200191610dd9565b820191906000526020600020905b815481529060010190602001808311610dbc57829003601f168201915b505050505090806004018054600181600116156101000203166002900480601f016020809104026020016040519081016040528092919081815260200182805460018160011615610100020316600290048015610e775780601f10610e4c57610100808354040283529160200191610e77565b820191906000526020600020905b815481529060010190602001808311610e5a57829003601f168201915b5050505050908060050160009054906101000a900460ff16905086565b60015481565b6002602052806000526040600020600091509050806000015490806001018054600181600116156101000203166002900480601f016020809104026020016040519081016040528092919081815260200182805460018160011615610100020316600290048015610f4c5780601f10610f2157610100808354040283529160200191610f4c565b820191906000526020600020905b815481529060010190602001808311610f2f57829003601f168201915b505050505090806002018054600181600116156101000203166002900480601f016020809104026020016040519081016040528092919081815260200182805460018160011615610100020316600290048015610fea5780601f10610fbf57610100808354040283529160200191610fea565b820191906000526020600020905b815481529060010190602001808311610fcd57829003601f168201915b505050505090806003018054600181600116156101000203166002900480601f0160208091040260200160405190810160405280929190818152602001828054600181600116156101000203166002900480156110885780601f1061105d57610100808354040283529160200191611088565b820191906000526020600020905b81548152906001019060200180831161106b57829003601f168201915b505050505090806004018054600181600116156101000203166002900480601f0160208091040260200160405190810160405280929190818152602001828054600181600116156101000203166002900480156111265780601f106110fb57610100808354040283529160200191611126565b820191906000526020600020905b81548152906001019060200180831161110957829003601f168201915b5050505050905085565b60005481565b828054600181600116156101000203166002900490600052602060002090601f016020900481019282601f1061117757805160ff19168380011785556111a5565b828001600101855582156111a5579182015b828111156111a4578251825591602001919060010190611189565b5b5090506111b291906111b6565b5090565b6111d891905b808211156111d45760008160009055506001016111bc565b5090565b9056fea165627a7a7230582077e2229827571f9763b618d64c5bebe158a681c20c8697efb9f50fb7fb5713090029",
  "source": "pragma solidity ^0.5.0;\r\n\r\ncontract ProductTracker{\r\n\tuint public productCount=0;\r\n\tuint public transitCount=0;\r\n\tstruct Product{\r\n\t\tuint id;\r\n\t\tstring productName;\r\n\t\tstring Manufacturer;\r\n\t\tstring Origin;\r\n\t\tstring On;\r\n\t}\r\n\tstruct Transit{\r\n\t    uint id;\r\n\t    string From;\r\n\t    string To;\r\n\t    string On;\r\n\t    string In;\r\n\t    bool transitStatus;\r\n\t}\r\n\tmapping(uint => Product) public products;\r\n\tmapping(uint=> Transit) public transitRecords;\r\n\r\n\tconstructor() public{\r\n\t\taddNewProduct(\"Me\",\"God\",\"Earth\",\"Birth\");\r\n\t\ttransitUpdate(1,\"Earth\",\"Heaven\",\"Birth\",\"Lifetime\");\r\n\t}\r\n\r\n\tfunction addNewProduct(string memory _productName,string memory _Manufacturer,string memory _Origin,string memory _On) public{\r\n\t\tproductCount ++;\r\n\t\tproducts[productCount]=Product(productCount,_productName,_Manufacturer,_Origin,_On);\r\n\t}\r\n\tfunction transitUpdate(uint _id,string memory _From, string memory  _To, string memory _On, string memory _In) public{\r\n\t\ttransitCount ++;\r\n\t\tbool result=keccak256(bytes(_From))==keccak256(bytes(_To));\r\n\t\ttransitRecords[transitCount]=Transit(_id,_From,_To,_On,_In,result);\r\n\t}\r\n\r\n}\r\n// string memory _From, string memory  _To, string memory _On, string memory _In\r\n// ,\"Earth\",\"Heaven\",\"Death\",\"Some days\"\r\n// \t\tbool result=keccak256(bytes(_From))==keccak256(bytes(_To));",
  "sourcePath": "C:/Users/Vidhu/product-tracker/contracts/ProductTracker.sol",
  "compiler": {
    "name": "solc",
    "version": "0.5.0+commit.1d4f565a.Emscripten.clang"
  },
  "schemaVersion": "3.0.1",
  "updatedAt": "2021-04-20T11:00:29.850Z",
  "devdoc": {
    "methods": {}
  },
  "userdoc": {
    "methods": {}
  }
}